{
  "_format": "hh-sol-artifact-1",
  "contractName": "Lock",
  "sourceName": "contracts/Lock.sol",
  "abi": [
    {
      "inputs": [
        {
          "internalType": "address",
          "name": "tokenAddress",
          "type": "address"
        }
      ],
      "stateMutability": "nonpayable",
      "type": "constructor"
    },
    {
      "inputs": [
        {
          "internalType": "uint256",
          "name": "amount",
          "type": "uint256"
        }
      ],
      "name": "lockTokens",
      "outputs": [],
      "stateMutability": "nonpayable",
      "type": "function"
    },
    {
      "inputs": [],
      "name": "lockerCount",
      "outputs": [
        {
          "internalType": "uint256",
          "name": "",
          "type": "uint256"
        }
      ],
      "stateMutability": "view",
      "type": "function"
    },
    {
      "inputs": [
        {
          "internalType": "address",
          "name": "",
          "type": "address"
        }
      ],
      "name": "lockers",
      "outputs": [
        {
          "internalType": "uint256",
          "name": "",
          "type": "uint256"
        }
      ],
      "stateMutability": "view",
      "type": "function"
    },
    {
      "inputs": [],
      "name": "totalLocked",
      "outputs": [
        {
          "internalType": "uint256",
          "name": "",
          "type": "uint256"
        }
      ],
      "stateMutability": "view",
      "type": "function"
    },
    {
      "inputs": [],
      "name": "withdrawToken",
      "outputs": [],
      "stateMutability": "nonpayable",
      "type": "function"
    }
  ],
  "bytecode": "0x608060405234801561001057600080fd5b50604051610b11380380610b118339818101604052810190610032919061008d565b806000806101000a81548173ffffffffffffffffffffffffffffffffffffffff021916908373ffffffffffffffffffffffffffffffffffffffff160217905550506100ff565b600081519050610087816100e8565b92915050565b60006020828403121561009f57600080fd5b60006100ad84828501610078565b91505092915050565b60006100c1826100c8565b9050919050565b600073ffffffffffffffffffffffffffffffffffffffff82169050919050565b6100f1816100b6565b81146100fc57600080fd5b50565b610a038061010e6000396000f3fe608060405234801561001057600080fd5b50600436106100575760003560e01c80632c8e7a211461005c578063568914121461008c5780636e27d889146100aa578063ca628c78146100c6578063ccd96eb6146100d0575b600080fd5b61007660048036038101906100719190610585565b6100ee565b6040516100839190610747565b60405180910390f35b610094610106565b6040516100a19190610747565b60405180910390f35b6100c460048036038101906100bf91906105d7565b61010c565b005b6100ce610317565b005b6100d8610540565b6040516100e59190610747565b60405180910390f35b60036020528060005260406000206000915090505481565b60025481565b6000811161014f576040517f08c379a0000000000000000000000000000000000000000000000000000000008152600401610146906106e7565b60405180910390fd5b6000600360003373ffffffffffffffffffffffffffffffffffffffff1673ffffffffffffffffffffffffffffffffffffffff1681526020019081526020016000205410156101b057600160008154809291906101aa9061086f565b91905055505b80600260008282546101c29190610773565b9250508190555080600360003373ffffffffffffffffffffffffffffffffffffffff1673ffffffffffffffffffffffffffffffffffffffff16815260200190815260200160002060008282546102189190610773565b9250508190555060008060009054906101000a900473ffffffffffffffffffffffffffffffffffffffff1673ffffffffffffffffffffffffffffffffffffffff166323b872dd3330856040518463ffffffff1660e01b815260040161027f93929190610687565b602060405180830381600087803b15801561029957600080fd5b505af11580156102ad573d6000803e3d6000fd5b505050506040513d601f19601f820116820180604052508101906102d191906105ae565b905080610313576040517f08c379a000000000000000000000000000000000000000000000000000000000815260040161030a90610727565b60405180910390fd5b5050565b6000600360003373ffffffffffffffffffffffffffffffffffffffff1673ffffffffffffffffffffffffffffffffffffffff1681526020019081526020016000205411610399576040517f08c379a000000000000000000000000000000000000000000000000000000000815260040161039090610707565b60405180910390fd5b6000600360003373ffffffffffffffffffffffffffffffffffffffff1673ffffffffffffffffffffffffffffffffffffffff168152602001908152602001600020549050600360003373ffffffffffffffffffffffffffffffffffffffff1673ffffffffffffffffffffffffffffffffffffffff16815260200190815260200160002060009055806002600082825461043291906107c9565b925050819055506001600081548092919061044c90610845565b919050555060008054906101000a900473ffffffffffffffffffffffffffffffffffffffff1673ffffffffffffffffffffffffffffffffffffffff1663a9059cbb33836040518363ffffffff1660e01b81526004016104ac9291906106be565b602060405180830381600087803b1580156104c657600080fd5b505af11580156104da573d6000803e3d6000fd5b505050506040513d601f19601f820116820180604052508101906104fe91906105ae565b61053d576040517f08c379a000000000000000000000000000000000000000000000000000000000815260040161053490610727565b60405180910390fd5b50565b60015481565b60008135905061055581610988565b92915050565b60008151905061056a8161099f565b92915050565b60008135905061057f816109b6565b92915050565b60006020828403121561059757600080fd5b60006105a584828501610546565b91505092915050565b6000602082840312156105c057600080fd5b60006105ce8482850161055b565b91505092915050565b6000602082840312156105e957600080fd5b60006105f784828501610570565b91505092915050565b610609816107fd565b82525050565b600061061c602383610762565b9150610627826108e7565b604082019050919050565b600061063f601183610762565b915061064a82610936565b602082019050919050565b6000610662601083610762565b915061066d8261095f565b602082019050919050565b6106818161083b565b82525050565b600060608201905061069c6000830186610600565b6106a96020830185610600565b6106b66040830184610678565b949350505050565b60006040820190506106d36000830185610600565b6106e06020830184610678565b9392505050565b600060208201905081810360008301526107008161060f565b9050919050565b6000602082019050818103600083015261072081610632565b9050919050565b6000602082019050818103600083015261074081610655565b9050919050565b600060208201905061075c6000830184610678565b92915050565b600082825260208201905092915050565b600061077e8261083b565b91506107898361083b565b9250827fffffffffffffffffffffffffffffffffffffffffffffffffffffffffffffffff038211156107be576107bd6108b8565b5b828201905092915050565b60006107d48261083b565b91506107df8361083b565b9250828210156107f2576107f16108b8565b5b828203905092915050565b60006108088261081b565b9050919050565b60008115159050919050565b600073ffffffffffffffffffffffffffffffffffffffff82169050919050565b6000819050919050565b60006108508261083b565b91506000821415610864576108636108b8565b5b600182039050919050565b600061087a8261083b565b91507fffffffffffffffffffffffffffffffffffffffffffffffffffffffffffffffff8214156108ad576108ac6108b8565b5b600182019050919050565b7f4e487b7100000000000000000000000000000000000000000000000000000000600052601160045260246000fd5b7f546f6b656e20616d6f756e74206d75737420626520626967676572207468616e60008201527f20302e0000000000000000000000000000000000000000000000000000000000602082015250565b7f4e6f7420656e6f75676820746f6b656e2e000000000000000000000000000000600082015250565b7f5472616e73666572206661696c65642e00000000000000000000000000000000600082015250565b610991816107fd565b811461099c57600080fd5b50565b6109a88161080f565b81146109b357600080fd5b50565b6109bf8161083b565b81146109ca57600080fd5b5056fea26469706673582212201afa9aef4ba1ce5ab9216673782f5ace6edf45636fb9ad495894a60de4247deb64736f6c63430008020033",
  "linkReferences": {},
  "deployedLinkReferences": {}
}