{
  "_format": "hh-sol-artifact-1",
  "contractName": "Lock",
  "sourceName": "contracts/Lock.sol",
  "abi": [
    {
      "inputs": [
        {
          "internalType": "address",
          "name": "tokenAddress",
          "type": "address"
        }
      ],
      "stateMutability": "nonpayable",
      "type": "constructor"
    },
    {
      "inputs": [
        {
          "internalType": "address",
          "name": "",
          "type": "address"
        }
      ],
      "name": "deadline",
      "outputs": [
        {
          "internalType": "uint256",
          "name": "",
          "type": "uint256"
        }
      ],
      "stateMutability": "view",
      "type": "function"
    },
    {
      "inputs": [
        {
          "internalType": "uint256",
          "name": "amount",
          "type": "uint256"
        },
        {
          "internalType": "uint256",
          "name": "time",
          "type": "uint256"
        }
      ],
      "name": "lockTokens",
      "outputs": [],
      "stateMutability": "nonpayable",
      "type": "function"
    },
    {
      "inputs": [],
      "name": "lockerCount",
      "outputs": [
        {
          "internalType": "uint256",
          "name": "",
          "type": "uint256"
        }
      ],
      "stateMutability": "view",
      "type": "function"
    },
    {
      "inputs": [
        {
          "internalType": "address",
          "name": "",
          "type": "address"
        }
      ],
      "name": "lockers",
      "outputs": [
        {
          "internalType": "uint256",
          "name": "",
          "type": "uint256"
        }
      ],
      "stateMutability": "view",
      "type": "function"
    },
    {
      "inputs": [],
      "name": "totalLocked",
      "outputs": [
        {
          "internalType": "uint256",
          "name": "",
          "type": "uint256"
        }
      ],
      "stateMutability": "view",
      "type": "function"
    },
    {
      "inputs": [],
      "name": "withdrawToken",
      "outputs": [],
      "stateMutability": "nonpayable",
      "type": "function"
    }
  ],
  "bytecode": "0x608060405234801561001057600080fd5b50604051610da7380380610da78339818101604052810190610032919061008d565b806000806101000a81548173ffffffffffffffffffffffffffffffffffffffff021916908373ffffffffffffffffffffffffffffffffffffffff160217905550506100ff565b600081519050610087816100e8565b92915050565b60006020828403121561009f57600080fd5b60006100ad84828501610078565b91505092915050565b60006100c1826100c8565b9050919050565b600073ffffffffffffffffffffffffffffffffffffffff82169050919050565b6100f1816100b6565b81146100fc57600080fd5b50565b610c998061010e6000396000f3fe608060405234801561001057600080fd5b50600436106100625760003560e01c80632c8e7a21146100675780635403b3941461009757806356891412146100c757806389158d8e146100e5578063ca628c7814610101578063ccd96eb61461010b575b600080fd5b610081600480360381019061007c9190610730565b610129565b60405161008e919061098b565b60405180910390f35b6100b160048036038101906100ac9190610730565b610141565b6040516100be919061098b565b60405180910390f35b6100cf610159565b6040516100dc919061098b565b60405180910390f35b6100ff60048036038101906100fa9190610782565b61015f565b005b6101096103fd565b005b6101136106eb565b604051610120919061098b565b60405180910390f35b60036020528060005260406000206000915090505481565b60046020528060005260406000206000915090505481565b60025481565b600082116101a2576040517f08c379a00000000000000000000000000000000000000000000000000000000081526004016101999061090b565b60405180910390fd5b600081116101e5576040517f08c379a00000000000000000000000000000000000000000000000000000000081526004016101dc906108eb565b60405180910390fd5b6000600360003373ffffffffffffffffffffffffffffffffffffffff1673ffffffffffffffffffffffffffffffffffffffff168152602001908152602001600020541015610246576001600081548092919061024090610ab3565b91905055505b816002600082825461025891906109b7565b9250508190555081600360003373ffffffffffffffffffffffffffffffffffffffff1673ffffffffffffffffffffffffffffffffffffffff16815260200190815260200160002060008282546102ae91906109b7565b9250508190555080426102c191906109b7565b600460003373ffffffffffffffffffffffffffffffffffffffff1673ffffffffffffffffffffffffffffffffffffffff1681526020019081526020016000208190555060008060009054906101000a900473ffffffffffffffffffffffffffffffffffffffff1673ffffffffffffffffffffffffffffffffffffffff166323b872dd3330866040518463ffffffff1660e01b81526004016103649392919061088b565b602060405180830381600087803b15801561037e57600080fd5b505af1158015610392573d6000803e3d6000fd5b505050506040513d601f19601f820116820180604052508101906103b69190610759565b9050806103f8576040517f08c379a00000000000000000000000000000000000000000000000000000000081526004016103ef9061096b565b60405180910390fd5b505050565b6000600360003373ffffffffffffffffffffffffffffffffffffffff1673ffffffffffffffffffffffffffffffffffffffff168152602001908152602001600020541161047f576040517f08c379a00000000000000000000000000000000000000000000000000000000081526004016104769061094b565b60405180910390fd5b42600460003373ffffffffffffffffffffffffffffffffffffffff1673ffffffffffffffffffffffffffffffffffffffff168152602001908152602001600020541015610501576040517f08c379a00000000000000000000000000000000000000000000000000000000081526004016104f89061092b565b60405180910390fd5b6000600360003373ffffffffffffffffffffffffffffffffffffffff1673ffffffffffffffffffffffffffffffffffffffff168152602001908152602001600020549050600360003373ffffffffffffffffffffffffffffffffffffffff1673ffffffffffffffffffffffffffffffffffffffff16815260200190815260200160002060009055600460003373ffffffffffffffffffffffffffffffffffffffff1673ffffffffffffffffffffffffffffffffffffffff1681526020019081526020016000206000905580600260008282546105dd9190610a0d565b92505081905550600160008154809291906105f790610a89565b919050555060008054906101000a900473ffffffffffffffffffffffffffffffffffffffff1673ffffffffffffffffffffffffffffffffffffffff1663a9059cbb33836040518363ffffffff1660e01b81526004016106579291906108c2565b602060405180830381600087803b15801561067157600080fd5b505af1158015610685573d6000803e3d6000fd5b505050506040513d601f19601f820116820180604052508101906106a99190610759565b6106e8576040517f08c379a00000000000000000000000000000000000000000000000000000000081526004016106df9061096b565b60405180910390fd5b50565b60015481565b60008135905061070081610c1e565b92915050565b60008151905061071581610c35565b92915050565b60008135905061072a81610c4c565b92915050565b60006020828403121561074257600080fd5b6000610750848285016106f1565b91505092915050565b60006020828403121561076b57600080fd5b600061077984828501610706565b91505092915050565b6000806040838503121561079557600080fd5b60006107a38582860161071b565b92505060206107b48582860161071b565b9150509250929050565b6107c781610a41565b82525050565b60006107da601b836109a6565b91506107e582610b2b565b602082019050919050565b60006107fd6023836109a6565b915061080882610b54565b604082019050919050565b60006108206009836109a6565b915061082b82610ba3565b602082019050919050565b60006108436011836109a6565b915061084e82610bcc565b602082019050919050565b60006108666010836109a6565b915061087182610bf5565b602082019050919050565b61088581610a7f565b82525050565b60006060820190506108a060008301866107be565b6108ad60208301856107be565b6108ba604083018461087c565b949350505050565b60006040820190506108d760008301856107be565b6108e4602083018461087c565b9392505050565b60006020820190508181036000830152610904816107cd565b9050919050565b60006020820190508181036000830152610924816107f0565b9050919050565b6000602082019050818103600083015261094481610813565b9050919050565b6000602082019050818103600083015261096481610836565b9050919050565b6000602082019050818103600083015261098481610859565b9050919050565b60006020820190506109a0600083018461087c565b92915050565b600082825260208201905092915050565b60006109c282610a7f565b91506109cd83610a7f565b9250827fffffffffffffffffffffffffffffffffffffffffffffffffffffffffffffffff03821115610a0257610a01610afc565b5b828201905092915050565b6000610a1882610a7f565b9150610a2383610a7f565b925082821015610a3657610a35610afc565b5b828203905092915050565b6000610a4c82610a5f565b9050919050565b60008115159050919050565b600073ffffffffffffffffffffffffffffffffffffffff82169050919050565b6000819050919050565b6000610a9482610a7f565b91506000821415610aa857610aa7610afc565b5b600182039050919050565b6000610abe82610a7f565b91507fffffffffffffffffffffffffffffffffffffffffffffffffffffffffffffffff821415610af157610af0610afc565b5b600182019050919050565b7f4e487b7100000000000000000000000000000000000000000000000000000000600052601160045260246000fd5b7f54696d65206d75737420626520626967676572207468616e20302e0000000000600082015250565b7f546f6b656e20616d6f756e74206d75737420626520626967676572207468616e60008201527f20302e0000000000000000000000000000000000000000000000000000000000602082015250565b7f54696d65206f75742e0000000000000000000000000000000000000000000000600082015250565b7f4e6f7420656e6f75676820746f6b656e2e000000000000000000000000000000600082015250565b7f5472616e73666572206661696c65642e00000000000000000000000000000000600082015250565b610c2781610a41565b8114610c3257600080fd5b50565b610c3e81610a53565b8114610c4957600080fd5b50565b610c5581610a7f565b8114610c6057600080fd5b5056fea2646970667358221220766cc7f3105acbc22acc6d715f5ec77108797753241f8c62f6c3b78ba05b3b7b64736f6c63430008020033",
  "linkReferences": {},
  "deployedLinkReferences": {}
}